{
  "abi": [
    {
      "type": "constructor",
      "inputs": [
        {
          "name": "_name",
          "type": "string",
          "internalType": "string"
        },
        {
          "name": "_symbol",
          "type": "string",
          "internalType": "string"
        },
        {
          "name": "_decimals",
          "type": "uint8",
          "internalType": "uint8"
        }
      ],
      "stateMutability": "nonpayable"
    },
    {
      "type": "function",
      "name": "DOMAIN_SEPARATOR",
      "inputs": [],
      "outputs": [
        {
          "name": "",
          "type": "bytes32",
          "internalType": "bytes32"
        }
      ],
      "stateMutability": "view"
    },
    {
      "type": "function",
      "name": "GATEWAY",
      "inputs": [],
      "outputs": [
        {
          "name": "",
          "type": "address",
          "internalType": "address"
        }
      ],
      "stateMutability": "view"
    },
    {
      "type": "function",
      "name": "allowance",
      "inputs": [
        {
          "name": "owner",
          "type": "address",
          "internalType": "address"
        },
        {
          "name": "spender",
          "type": "address",
          "internalType": "address"
        }
      ],
      "outputs": [
        {
          "name": "",
          "type": "uint256",
          "internalType": "uint256"
        }
      ],
      "stateMutability": "view"
    },
    {
      "type": "function",
      "name": "approve",
      "inputs": [
        {
          "name": "spender",
          "type": "address",
          "internalType": "address"
        },
        {
          "name": "amount",
          "type": "uint256",
          "internalType": "uint256"
        }
      ],
      "outputs": [
        {
          "name": "",
          "type": "bool",
          "internalType": "bool"
        }
      ],
      "stateMutability": "nonpayable"
    },
    {
      "type": "function",
      "name": "balanceOf",
      "inputs": [
        {
          "name": "account",
          "type": "address",
          "internalType": "address"
        }
      ],
      "outputs": [
        {
          "name": "",
          "type": "uint256",
          "internalType": "uint256"
        }
      ],
      "stateMutability": "view"
    },
    {
      "type": "function",
      "name": "burn",
      "inputs": [
        {
          "name": "account",
          "type": "address",
          "internalType": "address"
        },
        {
          "name": "amount",
          "type": "uint256",
          "internalType": "uint256"
        }
      ],
      "outputs": [],
      "stateMutability": "nonpayable"
    },
    {
      "type": "function",
      "name": "decimals",
      "inputs": [],
      "outputs": [
        {
          "name": "",
          "type": "uint8",
          "internalType": "uint8"
        }
      ],
      "stateMutability": "view"
    },
    {
      "type": "function",
      "name": "decreaseAllowance",
      "inputs": [
        {
          "name": "spender",
          "type": "address",
          "internalType": "address"
        },
        {
          "name": "subtractedValue",
          "type": "uint256",
          "internalType": "uint256"
        }
      ],
      "outputs": [
        {
          "name": "",
          "type": "bool",
          "internalType": "bool"
        }
      ],
      "stateMutability": "nonpayable"
    },
    {
      "type": "function",
      "name": "increaseAllowance",
      "inputs": [
        {
          "name": "spender",
          "type": "address",
          "internalType": "address"
        },
        {
          "name": "addedValue",
          "type": "uint256",
          "internalType": "uint256"
        }
      ],
      "outputs": [
        {
          "name": "",
          "type": "bool",
          "internalType": "bool"
        }
      ],
      "stateMutability": "nonpayable"
    },
    {
      "type": "function",
      "name": "mint",
      "inputs": [
        {
          "name": "account",
          "type": "address",
          "internalType": "address"
        },
        {
          "name": "amount",
          "type": "uint256",
          "internalType": "uint256"
        }
      ],
      "outputs": [],
      "stateMutability": "nonpayable"
    },
    {
      "type": "function",
      "name": "name",
      "inputs": [],
      "outputs": [
        {
          "name": "",
          "type": "string",
          "internalType": "string"
        }
      ],
      "stateMutability": "view"
    },
    {
      "type": "function",
      "name": "nonces",
      "inputs": [
        {
          "name": "account",
          "type": "address",
          "internalType": "address"
        }
      ],
      "outputs": [
        {
          "name": "",
          "type": "uint256",
          "internalType": "uint256"
        }
      ],
      "stateMutability": "view"
    },
    {
      "type": "function",
      "name": "permit",
      "inputs": [
        {
          "name": "issuer",
          "type": "address",
          "internalType": "address"
        },
        {
          "name": "spender",
          "type": "address",
          "internalType": "address"
        },
        {
          "name": "value",
          "type": "uint256",
          "internalType": "uint256"
        },
        {
          "name": "deadline",
          "type": "uint256",
          "internalType": "uint256"
        },
        {
          "name": "v",
          "type": "uint8",
          "internalType": "uint8"
        },
        {
          "name": "r",
          "type": "bytes32",
          "internalType": "bytes32"
        },
        {
          "name": "s",
          "type": "bytes32",
          "internalType": "bytes32"
        }
      ],
      "outputs": [],
      "stateMutability": "nonpayable"
    },
    {
      "type": "function",
      "name": "symbol",
      "inputs": [],
      "outputs": [
        {
          "name": "",
          "type": "string",
          "internalType": "string"
        }
      ],
      "stateMutability": "view"
    },
    {
      "type": "function",
      "name": "totalSupply",
      "inputs": [],
      "outputs": [
        {
          "name": "",
          "type": "uint256",
          "internalType": "uint256"
        }
      ],
      "stateMutability": "view"
    },
    {
      "type": "function",
      "name": "transfer",
      "inputs": [
        {
          "name": "recipient",
          "type": "address",
          "internalType": "address"
        },
        {
          "name": "amount",
          "type": "uint256",
          "internalType": "uint256"
        }
      ],
      "outputs": [
        {
          "name": "",
          "type": "bool",
          "internalType": "bool"
        }
      ],
      "stateMutability": "nonpayable"
    },
    {
      "type": "function",
      "name": "transferFrom",
      "inputs": [
        {
          "name": "sender",
          "type": "address",
          "internalType": "address"
        },
        {
          "name": "recipient",
          "type": "address",
          "internalType": "address"
        },
        {
          "name": "amount",
          "type": "uint256",
          "internalType": "uint256"
        }
      ],
      "outputs": [
        {
          "name": "",
          "type": "bool",
          "internalType": "bool"
        }
      ],
      "stateMutability": "nonpayable"
    },
    {
      "type": "event",
      "name": "Approval",
      "inputs": [
        {
          "name": "owner",
          "type": "address",
          "indexed": true,
          "internalType": "address"
        },
        {
          "name": "spender",
          "type": "address",
          "indexed": true,
          "internalType": "address"
        },
        {
          "name": "value",
          "type": "uint256",
          "indexed": false,
          "internalType": "uint256"
        }
      ],
      "anonymous": false
    },
    {
      "type": "event",
      "name": "Transfer",
      "inputs": [
        {
          "name": "from",
          "type": "address",
          "indexed": true,
          "internalType": "address"
        },
        {
          "name": "to",
          "type": "address",
          "indexed": true,
          "internalType": "address"
        },
        {
          "name": "value",
          "type": "uint256",
          "indexed": false,
          "internalType": "uint256"
        }
      ],
      "anonymous": false
    },
    {
      "type": "error",
      "name": "InsufficientAllowance",
      "inputs": [
        {
          "name": "spender",
          "type": "address",
          "internalType": "address"
        },
        {
          "name": "allowance",
          "type": "uint256",
          "internalType": "uint256"
        },
        {
          "name": "needed",
          "type": "uint256",
          "internalType": "uint256"
        }
      ]
    },
    {
      "type": "error",
      "name": "InsufficientBalance",
      "inputs": [
        {
          "name": "sender",
          "type": "address",
          "internalType": "address"
        },
        {
          "name": "balance",
          "type": "uint256",
          "internalType": "uint256"
        },
        {
          "name": "needed",
          "type": "uint256",
          "internalType": "uint256"
        }
      ]
    },
    {
      "type": "error",
      "name": "InvalidAccount",
      "inputs": []
    },
    {
      "type": "error",
      "name": "InvalidS",
      "inputs": []
    },
    {
      "type": "error",
      "name": "InvalidSignature",
      "inputs": []
    },
    {
      "type": "error",
      "name": "InvalidV",
      "inputs": []
    },
    {
      "type": "error",
      "name": "PermitExpired",
      "inputs": []
    },
    {
      "type": "error",
      "name": "Unauthorized",
      "inputs": []
    }
  ],
  "bytecode": {
    "object": "0x60e060405234801561000f575f80fd5b50604051610f83380380610f8383398101604081905261002e91610199565b5f6100398482610294565b5060016100468382610294565b5060ff811660c0908152336080908152845160208087019190912060408051808201825260018152603160f81b9084015280517f8b73c3c69bb8fe3d512ecc4cf759cc79239f7b179b0ffacaa9a75d522b39400f938101939093528201527fc89efdaa54c0f20c7adf612882df0950f5a951637e0307cdcb4c672f298b8bc6606082015246918101919091523060a08201520160408051601f19818403018152919052805160209091012060a05250610353915050565b634e487b7160e01b5f52604160045260245ffd5b5f82601f830112610120575f80fd5b81516001600160401b038082111561013a5761013a6100fd565b604051601f8301601f19908116603f01168101908282118183101715610162576101626100fd565b8160405283815286602085880101111561017a575f80fd5b8360208701602083015e5f602085830101528094505050505092915050565b5f805f606084860312156101ab575f80fd5b83516001600160401b03808211156101c1575f80fd5b6101cd87838801610111565b945060208601519150808211156101e2575f80fd5b506101ef86828701610111565b925050604084015160ff81168114610205575f80fd5b809150509250925092565b600181811c9082168061022457607f821691505b60208210810361024257634e487b7160e01b5f52602260045260245ffd5b50919050565b601f82111561028f57805f5260205f20601f840160051c8101602085101561026d5750805b601f840160051c820191505b8181101561028c575f8155600101610279565b50505b505050565b81516001600160401b038111156102ad576102ad6100fd565b6102c1816102bb8454610210565b84610248565b602080601f8311600181146102f4575f84156102dd5750858301515b5f19600386901b1c1916600185901b17855561034b565b5f85815260208120601f198616915b8281101561032257888601518255948401946001909101908401610303565b508582101561033f57878501515f19600388901b60f8161c191681555b505060018460011b0185555b505050505050565b60805160a05160c051610bf16103925f395f61018401525f818161020901526108f501525f81816101bd015281816105ed01526107090152610bf15ff3fe608060405234801561000f575f80fd5b5060043610610115575f3560e01c806340c10f19116100ad5780639dc29fac1161007d578063a9059cbb11610063578063a9059cbb146102eb578063d505accf146102fe578063dd62ed3e14610311575f80fd5b80639dc29fac146102c5578063a457c2d7146102d8575f80fd5b806340c10f191461023e57806370a08231146102535780637ecebe001461028857806395d89b41146102bd575f80fd5b8063313ce567116100e8578063313ce5671461017f578063338c5371146101b85780633644e51514610204578063395093511461022b575f80fd5b806306fdde0314610119578063095ea7b31461013757806318160ddd1461015a57806323b872dd1461016c575b5f80fd5b610121610356565b60405161012e91906109b8565b60405180910390f35b61014a610145366004610a33565b6103e1565b604051901515815260200161012e565b6005545b60405190815260200161012e565b61014a61017a366004610a5b565b61049f565b6101a67f000000000000000000000000000000000000000000000000000000000000000081565b60405160ff909116815260200161012e565b6101df7f000000000000000000000000000000000000000000000000000000000000000081565b60405173ffffffffffffffffffffffffffffffffffffffff909116815260200161012e565b61015e7f000000000000000000000000000000000000000000000000000000000000000081565b61014a610239366004610a33565b61055f565b61025161024c366004610a33565b6105d5565b005b61015e610261366004610a94565b73ffffffffffffffffffffffffffffffffffffffff165f9081526002602052604090205490565b61015e610296366004610a94565b73ffffffffffffffffffffffffffffffffffffffff165f9081526004602052604090205490565b6101216106e4565b6102516102d3366004610a33565b6106f1565b61014a6102e6366004610a33565b6107d4565b61014a6102f9366004610a33565b61084a565b61025161030c366004610aad565b6108c6565b61015e61031f366004610b1a565b73ffffffffffffffffffffffffffffffffffffffff9182165f90815260036020908152604080832093909416825291909152205490565b5f805461036290610b4b565b80601f016020809104026020016040519081016040528092919081815260200182805461038e90610b4b565b80156103d95780601f106103b0576101008083540402835291602001916103d9565b820191905f5260205f20905b8154815290600101906020018083116103bc57829003601f168201915b505050505081565b6040517fb6be170c0000000000000000000000000000000000000000000000000000000081526002600482015233602482015273ffffffffffffffffffffffffffffffffffffffff83166044820152606481018290525f9073__$5bc549e11f8d63bcc65412ded69a0ddb68$__9063b6be170c906084015b602060405180830381865af4158015610474573d5f803e3d5ffd5b505050506040513d601f19601f820116820180604052508101906104989190610b9c565b9392505050565b6040517f1b8d43b00000000000000000000000000000000000000000000000000000000081526002600482015273ffffffffffffffffffffffffffffffffffffffff808516602483015283166044820152606481018290525f9073__$5bc549e11f8d63bcc65412ded69a0ddb68$__90631b8d43b090608401602060405180830381865af4158015610533573d5f803e3d5ffd5b505050506040513d601f19601f820116820180604052508101906105579190610b9c565b949350505050565b6040517f9411ce310000000000000000000000000000000000000000000000000000000081526002600482015273ffffffffffffffffffffffffffffffffffffffff83166024820152604481018290525f9073__$5bc549e11f8d63bcc65412ded69a0ddb68$__90639411ce3190606401610459565b3373ffffffffffffffffffffffffffffffffffffffff7f00000000000000000000000000000000000000000000000000000000000000001614610644576040517f82b4290000000000000000000000000000000000000000000000000000000000815260040160405180910390fd5b6040517f480ff0650000000000000000000000000000000000000000000000000000000081526002600482015273ffffffffffffffffffffffffffffffffffffffff831660248201526044810182905273__$5bc549e11f8d63bcc65412ded69a0ddb68$__9063480ff065906064015b5f6040518083038186803b1580156106ca575f80fd5b505af41580156106dc573d5f803e3d5ffd5b505050505050565b6001805461036290610b4b565b3373ffffffffffffffffffffffffffffffffffffffff7f00000000000000000000000000000000000000000000000000000000000000001614610760576040517f82b4290000000000000000000000000000000000000000000000000000000000815260040160405180910390fd5b6040517fc7f623870000000000000000000000000000000000000000000000000000000081526002600482015273ffffffffffffffffffffffffffffffffffffffff831660248201526044810182905273__$5bc549e11f8d63bcc65412ded69a0ddb68$__9063c7f62387906064016106b4565b6040517fdd9509340000000000000000000000000000000000000000000000000000000081526002600482015273ffffffffffffffffffffffffffffffffffffffff83166024820152604481018290525f9073__$5bc549e11f8d63bcc65412ded69a0ddb68$__9063dd95093490606401610459565b6040517f5f914f930000000000000000000000000000000000000000000000000000000081526002600482015233602482015273ffffffffffffffffffffffffffffffffffffffff83166044820152606481018290525f9073__$5bc549e11f8d63bcc65412ded69a0ddb68$__90635f914f9390608401610459565b6040517fcb0b92c8000000000000000000000000000000000000000000000000000000008152600260048201527f0000000000000000000000000000000000000000000000000000000000000000602482015273ffffffffffffffffffffffffffffffffffffffff8089166044830152871660648201526084810186905260a4810185905260ff841660c482015260e48101839052610104810182905273__$5bc549e11f8d63bcc65412ded69a0ddb68$__9063cb0b92c890610124015f6040518083038186803b158015610999575f80fd5b505af41580156109ab573d5f803e3d5ffd5b5050505050505050505050565b602081525f82518060208401528060208501604085015e5f6040828501015260407fffffffffffffffffffffffffffffffffffffffffffffffffffffffffffffffe0601f83011684010191505092915050565b803573ffffffffffffffffffffffffffffffffffffffff81168114610a2e575f80fd5b919050565b5f8060408385031215610a44575f80fd5b610a4d83610a0b565b946020939093013593505050565b5f805f60608486031215610a6d575f80fd5b610a7684610a0b565b9250610a8460208501610a0b565b9150604084013590509250925092565b5f60208284031215610aa4575f80fd5b61049882610a0b565b5f805f805f805f60e0888a031215610ac3575f80fd5b610acc88610a0b565b9650610ada60208901610a0b565b95506040880135945060608801359350608088013560ff81168114610afd575f80fd5b9699959850939692959460a0840135945060c09093013592915050565b5f8060408385031215610b2b575f80fd5b610b3483610a0b565b9150610b4260208401610a0b565b90509250929050565b600181811c90821680610b5f57607f821691505b602082108103610b96577f4e487b71000000000000000000000000000000000000000000000000000000005f52602260045260245ffd5b50919050565b5f60208284031215610bac575f80fd5b81518015158114610498575f80fdfea26469706673582212207216841ea54b8f8228ce8522258b1ce287d124d1ae3916cdef1b40cb257ae8e164736f6c63430008190033",
    "linkReferences": {
      "src/TokenLib.sol": {
        "TokenLib": [
          {
            "start": 1997,
            "length": 20
          },
          {
            "start": 2189,
            "length": 20
          },
          {
            "start": 2373,
            "length": 20
          },
          {
            "start": 2600,
            "length": 20
          },
          {
            "start": 2884,
            "length": 20
          },
          {
            "start": 3002,
            "length": 20
          },
          {
            "start": 3126,
            "length": 20
          },
          {
            "start": 3319,
            "length": 20
          }
        ]
      }
    }
  },
  "methodIdentifiers": {
    "DOMAIN_SEPARATOR()": "3644e515",
    "GATEWAY()": "338c5371",
    "allowance(address,address)": "dd62ed3e",
    "approve(address,uint256)": "095ea7b3",
    "balanceOf(address)": "70a08231",
    "burn(address,uint256)": "9dc29fac",
    "decimals()": "313ce567",
    "decreaseAllowance(address,uint256)": "a457c2d7",
    "increaseAllowance(address,uint256)": "39509351",
    "mint(address,uint256)": "40c10f19",
    "name()": "06fdde03",
    "nonces(address)": "7ecebe00",
    "permit(address,address,uint256,uint256,uint8,bytes32,bytes32)": "d505accf",
    "symbol()": "95d89b41",
    "totalSupply()": "18160ddd",
    "transfer(address,uint256)": "a9059cbb",
    "transferFrom(address,address,uint256)": "23b872dd"
  },
  "id": 57
}