{
  "abi": [
    {
      "type": "constructor",
      "inputs": [
        {
          "name": "beefyClient",
          "type": "address",
          "internalType": "address"
        },
        {
          "name": "agentExecutor",
          "type": "address",
          "internalType": "address"
        },
        {
          "name": "bridgeHubParaID",
          "type": "uint32",
          "internalType": "ParaID"
        },
        {
          "name": "bridgeHubAgentID",
          "type": "bytes32",
          "internalType": "bytes32"
        },
        {
          "name": "foreignTokenDecimals",
          "type": "uint8",
          "internalType": "uint8"
        },
        {
          "name": "maxDestinationFee",
          "type": "uint128",
          "internalType": "uint128"
        }
      ],
      "stateMutability": "nonpayable"
    },
    {
      "type": "function",
      "name": "AGENT_EXECUTOR",
      "inputs": [],
      "outputs": [
        {
          "name": "",
          "type": "address",
          "internalType": "address"
        }
      ],
      "stateMutability": "view"
    },
    {
      "type": "function",
      "name": "BEEFY_CLIENT",
      "inputs": [],
      "outputs": [
        {
          "name": "",
          "type": "address",
          "internalType": "address"
        }
      ],
      "stateMutability": "view"
    },
    {
      "type": "function",
      "name": "agentExecute",
      "inputs": [
        {
          "name": "data",
          "type": "bytes",
          "internalType": "bytes"
        }
      ],
      "outputs": [],
      "stateMutability": "nonpayable"
    },
    {
      "type": "function",
      "name": "agentOf",
      "inputs": [
        {
          "name": "agentID",
          "type": "bytes32",
          "internalType": "bytes32"
        }
      ],
      "outputs": [
        {
          "name": "",
          "type": "address",
          "internalType": "address"
        }
      ],
      "stateMutability": "view"
    },
    {
      "type": "function",
      "name": "channelNoncesOf",
      "inputs": [
        {
          "name": "channelID",
          "type": "bytes32",
          "internalType": "ChannelID"
        }
      ],
      "outputs": [
        {
          "name": "",
          "type": "uint64",
          "internalType": "uint64"
        },
        {
          "name": "",
          "type": "uint64",
          "internalType": "uint64"
        }
      ],
      "stateMutability": "view"
    },
    {
      "type": "function",
      "name": "channelOperatingModeOf",
      "inputs": [
        {
          "name": "channelID",
          "type": "bytes32",
          "internalType": "ChannelID"
        }
      ],
      "outputs": [
        {
          "name": "",
          "type": "uint8",
          "internalType": "enum OperatingMode"
        }
      ],
      "stateMutability": "view"
    },
    {
      "type": "function",
      "name": "createAgent",
      "inputs": [
        {
          "name": "data",
          "type": "bytes",
          "internalType": "bytes"
        }
      ],
      "outputs": [],
      "stateMutability": "nonpayable"
    },
    {
      "type": "function",
      "name": "createChannel",
      "inputs": [
        {
          "name": "data",
          "type": "bytes",
          "internalType": "bytes"
        }
      ],
      "outputs": [],
      "stateMutability": "nonpayable"
    },
    {
      "type": "function",
      "name": "implementation",
      "inputs": [],
      "outputs": [
        {
          "name": "",
          "type": "address",
          "internalType": "address"
        }
      ],
      "stateMutability": "view"
    },
    {
      "type": "function",
      "name": "initialize",
      "inputs": [
        {
          "name": "data",
          "type": "bytes",
          "internalType": "bytes"
        }
      ],
      "outputs": [],
      "stateMutability": "nonpayable"
    },
    {
      "type": "function",
      "name": "isTokenRegistered",
      "inputs": [
        {
          "name": "token",
          "type": "address",
          "internalType": "address"
        }
      ],
      "outputs": [
        {
          "name": "",
          "type": "bool",
          "internalType": "bool"
        }
      ],
      "stateMutability": "view"
    },
    {
      "type": "function",
      "name": "mintForeignToken",
      "inputs": [
        {
          "name": "data",
          "type": "bytes",
          "internalType": "bytes"
        }
      ],
      "outputs": [],
      "stateMutability": "nonpayable"
    },
    {
      "type": "function",
      "name": "operatingMode",
      "inputs": [],
      "outputs": [
        {
          "name": "",
          "type": "uint8",
          "internalType": "enum OperatingMode"
        }
      ],
      "stateMutability": "view"
    },
    {
      "type": "function",
      "name": "pricingParameters",
      "inputs": [],
      "outputs": [
        {
          "name": "",
          "type": "uint256",
          "internalType": "UD60x18"
        },
        {
          "name": "",
          "type": "uint128",
          "internalType": "uint128"
        }
      ],
      "stateMutability": "view"
    },
    {
      "type": "function",
      "name": "queryForeignTokenID",
      "inputs": [
        {
          "name": "token",
          "type": "address",
          "internalType": "address"
        }
      ],
      "outputs": [
        {
          "name": "",
          "type": "bytes32",
          "internalType": "bytes32"
        }
      ],
      "stateMutability": "view"
    },
    {
      "type": "function",
      "name": "quoteRegisterTokenFee",
      "inputs": [],
      "outputs": [
        {
          "name": "",
          "type": "uint256",
          "internalType": "uint256"
        }
      ],
      "stateMutability": "view"
    },
    {
      "type": "function",
      "name": "quoteSendTokenFee",
      "inputs": [
        {
          "name": "token",
          "type": "address",
          "internalType": "address"
        },
        {
          "name": "destinationChain",
          "type": "uint32",
          "internalType": "ParaID"
        },
        {
          "name": "destinationFee",
          "type": "uint128",
          "internalType": "uint128"
        }
      ],
      "outputs": [
        {
          "name": "",
          "type": "uint256",
          "internalType": "uint256"
        }
      ],
      "stateMutability": "view"
    },
    {
      "type": "function",
      "name": "registerForeignToken",
      "inputs": [
        {
          "name": "data",
          "type": "bytes",
          "internalType": "bytes"
        }
      ],
      "outputs": [],
      "stateMutability": "nonpayable"
    },
    {
      "type": "function",
      "name": "registerToken",
      "inputs": [
        {
          "name": "token",
          "type": "address",
          "internalType": "address"
        }
      ],
      "outputs": [],
      "stateMutability": "payable"
    },
    {
      "type": "function",
      "name": "sendToken",
      "inputs": [
        {
          "name": "token",
          "type": "address",
          "internalType": "address"
        },
        {
          "name": "destinationChain",
          "type": "uint32",
          "internalType": "ParaID"
        },
        {
          "name": "destinationAddress",
          "type": "tuple",
          "internalType": "struct MultiAddress",
          "components": [
            {
              "name": "kind",
              "type": "uint8",
              "internalType": "enum Kind"
            },
            {
              "name": "data",
              "type": "bytes",
              "internalType": "bytes"
            }
          ]
        },
        {
          "name": "destinationFee",
          "type": "uint128",
          "internalType": "uint128"
        },
        {
          "name": "amount",
          "type": "uint128",
          "internalType": "uint128"
        }
      ],
      "outputs": [],
      "stateMutability": "payable"
    },
    {
      "type": "function",
      "name": "setOperatingMode",
      "inputs": [
        {
          "name": "data",
          "type": "bytes",
          "internalType": "bytes"
        }
      ],
      "outputs": [],
      "stateMutability": "nonpayable"
    },
    {
      "type": "function",
      "name": "setPricingParameters",
      "inputs": [
        {
          "name": "data",
          "type": "bytes",
          "internalType": "bytes"
        }
      ],
      "outputs": [],
      "stateMutability": "nonpayable"
    },
    {
      "type": "function",
      "name": "setTokenTransferFees",
      "inputs": [
        {
          "name": "data",
          "type": "bytes",
          "internalType": "bytes"
        }
      ],
      "outputs": [],
      "stateMutability": "nonpayable"
    },
    {
      "type": "function",
      "name": "submitV1",
      "inputs": [
        {
          "name": "message",
          "type": "tuple",
          "internalType": "struct InboundMessage",
          "components": [
            {
              "name": "channelID",
              "type": "bytes32",
              "internalType": "ChannelID"
            },
            {
              "name": "nonce",
              "type": "uint64",
              "internalType": "uint64"
            },
            {
              "name": "command",
              "type": "uint8",
              "internalType": "enum Command"
            },
            {
              "name": "params",
              "type": "bytes",
              "internalType": "bytes"
            },
            {
              "name": "maxDispatchGas",
              "type": "uint64",
              "internalType": "uint64"
            },
            {
              "name": "maxFeePerGas",
              "type": "uint256",
              "internalType": "uint256"
            },
            {
              "name": "reward",
              "type": "uint256",
              "internalType": "uint256"
            },
            {
              "name": "id",
              "type": "bytes32",
              "internalType": "bytes32"
            }
          ]
        },
        {
          "name": "leafProof",
          "type": "bytes32[]",
          "internalType": "bytes32[]"
        },
        {
          "name": "headerProof",
          "type": "tuple",
          "internalType": "struct Verification.Proof",
          "components": [
            {
              "name": "header",
              "type": "tuple",
              "internalType": "struct Verification.ParachainHeader",
              "components": [
                {
                  "name": "parentHash",
                  "type": "bytes32",
                  "internalType": "bytes32"
                },
                {
                  "name": "number",
                  "type": "uint256",
                  "internalType": "uint256"
                },
                {
                  "name": "stateRoot",
                  "type": "bytes32",
                  "internalType": "bytes32"
                },
                {
                  "name": "extrinsicsRoot",
                  "type": "bytes32",
                  "internalType": "bytes32"
                },
                {
                  "name": "digestItems",
                  "type": "tuple[]",
                  "internalType": "struct Verification.DigestItem[]",
                  "components": [
                    {
                      "name": "kind",
                      "type": "uint256",
                      "internalType": "uint256"
                    },
                    {
                      "name": "consensusEngineID",
                      "type": "bytes4",
                      "internalType": "bytes4"
                    },
                    {
                      "name": "data",
                      "type": "bytes",
                      "internalType": "bytes"
                    }
                  ]
                }
              ]
            },
            {
              "name": "headProof",
              "type": "tuple",
              "internalType": "struct Verification.HeadProof",
              "components": [
                {
                  "name": "pos",
                  "type": "uint256",
                  "internalType": "uint256"
                },
                {
                  "name": "width",
                  "type": "uint256",
                  "internalType": "uint256"
                },
                {
                  "name": "proof",
                  "type": "bytes32[]",
                  "internalType": "bytes32[]"
                }
              ]
            },
            {
              "name": "leafPartial",
              "type": "tuple",
              "internalType": "struct Verification.MMRLeafPartial",
              "components": [
                {
                  "name": "version",
                  "type": "uint8",
                  "internalType": "uint8"
                },
                {
                  "name": "parentNumber",
                  "type": "uint32",
                  "internalType": "uint32"
                },
                {
                  "name": "parentHash",
                  "type": "bytes32",
                  "internalType": "bytes32"
                },
                {
                  "name": "nextAuthoritySetID",
                  "type": "uint64",
                  "internalType": "uint64"
                },
                {
                  "name": "nextAuthoritySetLen",
                  "type": "uint32",
                  "internalType": "uint32"
                },
                {
                  "name": "nextAuthoritySetRoot",
                  "type": "bytes32",
                  "internalType": "bytes32"
                }
              ]
            },
            {
              "name": "leafProof",
              "type": "bytes32[]",
              "internalType": "bytes32[]"
            },
            {
              "name": "leafProofOrder",
              "type": "uint256",
              "internalType": "uint256"
            }
          ]
        }
      ],
      "outputs": [],
      "stateMutability": "nonpayable"
    },
    {
      "type": "function",
      "name": "tokenAddressOf",
      "inputs": [
        {
          "name": "tokenID",
          "type": "bytes32",
          "internalType": "bytes32"
        }
      ],
      "outputs": [
        {
          "name": "",
          "type": "address",
          "internalType": "address"
        }
      ],
      "stateMutability": "view"
    },
    {
      "type": "function",
      "name": "transferNativeFromAgent",
      "inputs": [
        {
          "name": "data",
          "type": "bytes",
          "internalType": "bytes"
        }
      ],
      "outputs": [],
      "stateMutability": "nonpayable"
    },
    {
      "type": "function",
      "name": "transferNativeToken",
      "inputs": [
        {
          "name": "data",
          "type": "bytes",
          "internalType": "bytes"
        }
      ],
      "outputs": [],
      "stateMutability": "nonpayable"
    },
    {
      "type": "function",
      "name": "updateChannel",
      "inputs": [
        {
          "name": "data",
          "type": "bytes",
          "internalType": "bytes"
        }
      ],
      "outputs": [],
      "stateMutability": "nonpayable"
    },
    {
      "type": "function",
      "name": "upgrade",
      "inputs": [
        {
          "name": "data",
          "type": "bytes",
          "internalType": "bytes"
        }
      ],
      "outputs": [],
      "stateMutability": "nonpayable"
    },
    {
      "type": "event",
      "name": "AgentCreated",
      "inputs": [
        {
          "name": "agentID",
          "type": "bytes32",
          "indexed": false,
          "internalType": "bytes32"
        },
        {
          "name": "agent",
          "type": "address",
          "indexed": false,
          "internalType": "address"
        }
      ],
      "anonymous": false
    },
    {
      "type": "event",
      "name": "AgentFundsWithdrawn",
      "inputs": [
        {
          "name": "agentID",
          "type": "bytes32",
          "indexed": true,
          "internalType": "bytes32"
        },
        {
          "name": "recipient",
          "type": "address",
          "indexed": true,
          "internalType": "address"
        },
        {
          "name": "amount",
          "type": "uint256",
          "indexed": false,
          "internalType": "uint256"
        }
      ],
      "anonymous": false
    },
    {
      "type": "event",
      "name": "ChannelCreated",
      "inputs": [
        {
          "name": "channelID",
          "type": "bytes32",
          "indexed": true,
          "internalType": "ChannelID"
        }
      ],
      "anonymous": false
    },
    {
      "type": "event",
      "name": "ChannelUpdated",
      "inputs": [
        {
          "name": "channelID",
          "type": "bytes32",
          "indexed": true,
          "internalType": "ChannelID"
        }
      ],
      "anonymous": false
    },
    {
      "type": "event",
      "name": "ForeignTokenRegistered",
      "inputs": [
        {
          "name": "tokenID",
          "type": "bytes32",
          "indexed": true,
          "internalType": "bytes32"
        },
        {
          "name": "token",
          "type": "address",
          "indexed": false,
          "internalType": "address"
        }
      ],
      "anonymous": false
    },
    {
      "type": "event",
      "name": "InboundMessageDispatched",
      "inputs": [
        {
          "name": "channelID",
          "type": "bytes32",
          "indexed": true,
          "internalType": "ChannelID"
        },
        {
          "name": "nonce",
          "type": "uint64",
          "indexed": false,
          "internalType": "uint64"
        },
        {
          "name": "messageID",
          "type": "bytes32",
          "indexed": true,
          "internalType": "bytes32"
        },
        {
          "name": "success",
          "type": "bool",
          "indexed": false,
          "internalType": "bool"
        }
      ],
      "anonymous": false
    },
    {
      "type": "event",
      "name": "OperatingModeChanged",
      "inputs": [
        {
          "name": "mode",
          "type": "uint8",
          "indexed": false,
          "internalType": "enum OperatingMode"
        }
      ],
      "anonymous": false
    },
    {
      "type": "event",
      "name": "OutboundMessageAccepted",
      "inputs": [
        {
          "name": "channelID",
          "type": "bytes32",
          "indexed": true,
          "internalType": "ChannelID"
        },
        {
          "name": "nonce",
          "type": "uint64",
          "indexed": false,
          "internalType": "uint64"
        },
        {
          "name": "messageID",
          "type": "bytes32",
          "indexed": true,
          "internalType": "bytes32"
        },
        {
          "name": "payload",
          "type": "bytes",
          "indexed": false,
          "internalType": "bytes"
        }
      ],
      "anonymous": false
    },
    {
      "type": "event",
      "name": "PricingParametersChanged",
      "inputs": [],
      "anonymous": false
    },
    {
      "type": "event",
      "name": "TokenRegistrationSent",
      "inputs": [
        {
          "name": "token",
          "type": "address",
          "indexed": false,
          "internalType": "address"
        }
      ],
      "anonymous": false
    },
    {
      "type": "event",
      "name": "TokenSent",
      "inputs": [
        {
          "name": "token",
          "type": "address",
          "indexed": true,
          "internalType": "address"
        },
        {
          "name": "sender",
          "type": "address",
          "indexed": true,
          "internalType": "address"
        },
        {
          "name": "destinationChain",
          "type": "uint32",
          "indexed": true,
          "internalType": "ParaID"
        },
        {
          "name": "destinationAddress",
          "type": "tuple",
          "indexed": false,
          "internalType": "struct MultiAddress",
          "components": [
            {
              "name": "kind",
              "type": "uint8",
              "internalType": "enum Kind"
            },
            {
              "name": "data",
              "type": "bytes",
              "internalType": "bytes"
            }
          ]
        },
        {
          "name": "amount",
          "type": "uint128",
          "indexed": false,
          "internalType": "uint128"
        }
      ],
      "anonymous": false
    },
    {
      "type": "event",
      "name": "TokenTransferFeesChanged",
      "inputs": [],
      "anonymous": false
    },
    {
      "type": "event",
      "name": "Upgraded",
      "inputs": [
        {
          "name": "implementation",
          "type": "address",
          "indexed": true,
          "internalType": "address"
        }
      ],
      "anonymous": false
    },
    {
      "type": "error",
      "name": "AgentAlreadyCreated",
      "inputs": []
    },
    {
      "type": "error",
      "name": "AgentDoesNotExist",
      "inputs": []
    },
    {
      "type": "error",
      "name": "ChannelAlreadyCreated",
      "inputs": []
    },
    {
      "type": "error",
      "name": "ChannelDoesNotExist",
      "inputs": []
    },
    {
      "type": "error",
      "name": "Disabled",
      "inputs": []
    },
    {
      "type": "error",
      "name": "FeePaymentToLow",
      "inputs": []
    },
    {
      "type": "error",
      "name": "InvalidAgentExecutionPayload",
      "inputs": []
    },
    {
      "type": "error",
      "name": "InvalidChannelUpdate",
      "inputs": []
    },
    {
      "type": "error",
      "name": "InvalidCodeHash",
      "inputs": []
    },
    {
      "type": "error",
      "name": "InvalidConstructorParams",
      "inputs": []
    },
    {
      "type": "error",
      "name": "InvalidContract",
      "inputs": []
    },
    {
      "type": "error",
      "name": "InvalidNonce",
      "inputs": []
    },
    {
      "type": "error",
      "name": "InvalidProof",
      "inputs": []
    },
    {
      "type": "error",
      "name": "NativeTransferFailed",
      "inputs": []
    },
    {
      "type": "error",
      "name": "NotEnoughGas",
      "inputs": []
    },
    {
      "type": "error",
      "name": "PRBMath_MulDiv18_Overflow",
      "inputs": [
        {
          "name": "x",
          "type": "uint256",
          "internalType": "uint256"
        },
        {
          "name": "y",
          "type": "uint256",
          "internalType": "uint256"
        }
      ]
    },
    {
      "type": "error",
      "name": "PRBMath_MulDiv_Overflow",
      "inputs": [
        {
          "name": "x",
          "type": "uint256",
          "internalType": "uint256"
        },
        {
          "name": "y",
          "type": "uint256",
          "internalType": "uint256"
        },
        {
          "name": "denominator",
          "type": "uint256",
          "internalType": "uint256"
        }
      ]
    },
    {
      "type": "error",
      "name": "PRBMath_UD60x18_Convert_Overflow",
      "inputs": [
        {
          "name": "x",
          "type": "uint256",
          "internalType": "uint256"
        }
      ]
    },
    {
      "type": "error",
      "name": "PRBMath_UD60x18_Exp2_InputTooBig",
      "inputs": [
        {
          "name": "x",
          "type": "uint256",
          "internalType": "UD60x18"
        }
      ]
    },
    {
      "type": "error",
      "name": "PRBMath_UD60x18_Log_InputTooSmall",
      "inputs": [
        {
          "name": "x",
          "type": "uint256",
          "internalType": "UD60x18"
        }
      ]
    },
    {
      "type": "error",
      "name": "TokenNotRegistered",
      "inputs": []
    },
    {
      "type": "error",
      "name": "Unauthorized",
      "inputs": []
    }
  ],
  "bytecode": {
    "object": "0x6101606040526127105f55348015610015575f80fd5b506040516158c23803806158c2833981016040819052610034916100f0565b63ffffffff84161580610045575082155b1561006357604051631510b77f60e01b815260040160405180910390fd5b6001600160a01b0386811660a0528516608052600884811b63ff00ff001662ff00ff9186901c9190911617601081811b91901c1760e01b6001600160e01b03191660e05263ffffffff90931660c0526101009190915260ff16610140526001600160801b0316610120525061017b9050565b80516001600160a01b03811681146100eb575f80fd5b919050565b5f805f805f8060c08789031215610105575f80fd5b61010e876100d5565b955061011c602088016100d5565b9450604087015163ffffffff81168114610134575f80fd5b60608801516080890151919550935060ff81168114610151575f80fd5b60a08801519092506001600160801b038116811461016d575f80fd5b809150509295509295509295565b60805160a05160c05160e0516101005161012051610140516156cf6101f35f395f6130fc01525f81816116ea0152611a5101525f8181610ee20152610f2f01525f612e6101525f50505f81816104eb0152612e3f01525f81816103ce01528181610d4401528181611b60015261318e01526156cf5ff3fe6080604052600436106101ba575f3560e01c80635b2e9c4c116100f257806393dbdf1d11610092578063be8d42c011610062578063be8d42c0146105a8578063c3b8ec8e1461060b578063df4ed8291461062a578063fe61cc4914610649575f80fd5b806393dbdf1d1461052c5780639a870c8b1461054b578063ae8a4d981461056a578063afce33c414610589575f80fd5b8063805ce31d116100cd578063805ce31d146104995780638257f3d5146104bb57806390ffc4f9146104da578063928bc49d1461050d575f80fd5b80635b2e9c4c146104475780635c60da1b146104665780635e6dae261461047a575f80fd5b806326aa101f1161015d57806338004f691161013857806338004f6914610388578063423e69b6146103bd578063439fab91146104155780635205483414610434575f80fd5b806326aa101f146102fa5780632a6c32291461032957806335ede96914610369575f80fd5b80630b617646116101985780630b617646146102275780630c86ea461461029d57806317abcf60146102bc57806325394645146102db575f80fd5b8063017b7311146101be5780630705f465146101df57806309824a8014610214575b5f80fd5b3480156101c9575f80fd5b506101dd6101d8366004613f10565b610668565b005b3480156101ea575f80fd5b506101fe6101f9366004613f7c565b61075e565b60405161020b9190613fc0565b60405180910390f35b6101dd610222366004614006565b610774565b348015610232575f80fd5b507f59ef95eb9983b1a4650e1bc666384b8507689fc8aca3edd429d7e07c0ca9d2f6547f59ef95eb9983b1a4650e1bc666384b8507689fc8aca3edd429d7e07c0ca9d2f754604080519283526fffffffffffffffffffffffffffffffff90911660208301520161020b565b3480156102a8575f80fd5b506101dd6102b7366004613f10565b610840565b3480156102c7575f80fd5b506101dd6102d6366004613f10565b61092c565b3480156102e6575f80fd5b506101dd6102f5366004613f10565b610ae7565b348015610305575f80fd5b50610319610314366004614006565b610b4a565b604051901515815260200161020b565b348015610334575f80fd5b50610348610343366004613f7c565b610bf2565b6040805167ffffffffffffffff93841681529290911660208301520161020b565b348015610374575f80fd5b506101dd610383366004613f10565b610c27565b348015610393575f80fd5b507e96e2f02350077f4ff1746770dbe5db3c04b7db2c8763c8fc21bf66b35e96ab5460ff166101fe565b3480156103c8575f80fd5b506103f07f000000000000000000000000000000000000000000000000000000000000000081565b60405173ffffffffffffffffffffffffffffffffffffffff909116815260200161020b565b348015610420575f80fd5b506101dd61042f366004613f10565b610df8565b6101dd610442366004614065565b611696565b348015610452575f80fd5b506101dd610461366004613f10565b61177e565b348015610471575f80fd5b506103f0611855565b348015610485575f80fd5b506103f0610494366004613f7c565b611883565b3480156104a4575f80fd5b506104ad61188d565b60405190815260200161020b565b3480156104c6575f80fd5b506101dd6104d5366004613f10565b611900565b3480156104e5575f80fd5b506103f07f000000000000000000000000000000000000000000000000000000000000000081565b348015610518575f80fd5b506104ad6105273660046140ee565b6119e8565b348015610537575f80fd5b506101dd610546366004613f10565b611abf565b348015610556575f80fd5b506101dd610565366004613f10565b611c08565b348015610575575f80fd5b506101dd610584366004613f10565b611cd4565b348015610594575f80fd5b506101dd6105a3366004613f10565b611d81565b3480156105b3575f80fd5b506104ad6105c2366004614006565b73ffffffffffffffffffffffffffffffffffffffff165f9081527f8d3b47662f045c362f825b520d7ddf7a0e5f6703a828606de6840b3652b8c22e602052604090206001015490565b348015610616575f80fd5b506101dd610625366004613f10565b611ea9565b348015610635575f80fd5b506101dd61064436600461414d565b612038565b348015610654575f80fd5b506103f0610663366004613f7c565b61269a565b3330146106a1576040517f82b4290000000000000000000000000000000000000000000000000000000000815260040160405180910390fd5b5f6106ae82840184614380565b8051602082015160408084015190517f3cccca12000000000000000000000000000000000000000000000000000000008152600481019390935273ffffffffffffffffffffffffffffffffffffffff9091166024830152604482015290915073__$8f2c9aef4b12e754f755959dab335b34dd$__90633cccca12906064015b5f6040518083038186803b158015610743575f80fd5b505af4158015610755573d5f803e3d5ffd5b50505050505050565b5f8061076983612727565b5460ff169392505050565b6040517f09824a8000000000000000000000000000000000000000000000000000000000815273ffffffffffffffffffffffffffffffffffffffff8216600482015261083d9073__$8f2c9aef4b12e754f755959dab335b34dd$__906309824a80906024015f60405180830381865af41580156107f3573d5f803e3d5ffd5b505050506040513d5f823e601f3d9081017fffffffffffffffffffffffffffffffffffffffffffffffffffffffffffffffe0168201604052610838919081019061445f565b6127a8565b50565b333014610879576040517f82b4290000000000000000000000000000000000000000000000000000000000815260040160405180910390fd5b7f59ef95eb9983b1a4650e1bc666384b8507689fc8aca3edd429d7e07c0ca9d2f65f6108a7848401856144ec565b8051835560208101516001840180547fffffffffffffffffffffffffffffffff00000000000000000000000000000000166fffffffffffffffffffffffffffffffff9092169190911790556040808201516002850155519091507f5e3c25378b5946068b94aa2ea10c4c1e215cc975f994322b159ddc9237a973d4905f90a150505050565b333014610965576040517f82b4290000000000000000000000000000000000000000000000000000000000815260040160405180910390fd5b7e96e2f02350077f4ff1746770dbe5db3c04b7db2c8763c8fc21bf66b35e96ab5f6109928484018561453c565b90505f6109a282602001516129e0565b82515f90815260018086016020526040909120908101549192509073ffffffffffffffffffffffffffffffffffffffff1615610a0a576040517f1f6206e500000000000000000000000000000000000000000000000000000000815260040160405180910390fd5b6040830151815482907fffffffffffffffffffffffffffffffffffffffffffffffffffffffffffffff001660018381811115610a4857610a48613f93565b02179055506001810180547fffffffffffffffffffffffff00000000000000000000000000000000000000001673ffffffffffffffffffffffffffffffffffffffff841617905580547fffffffffffffffffffffffffffffff00000000000000000000000000000000ff16815582516040517fe7e6b36c9bc4c7817d3879c45d6ce1edd3c61b1966c488f1817697bb0b704525905f90a2505050505050565b333014610b20576040517f82b4290000000000000000000000000000000000000000000000000000000000815260040160405180910390fd5b5f610b2d828401846145c7565b9050610b45815f015182602001518360400151612a59565b505050565b6040517f26aa101f00000000000000000000000000000000000000000000000000000000815273ffffffffffffffffffffffffffffffffffffffff821660048201525f9073__$8f2c9aef4b12e754f755959dab335b34dd$__906326aa101f90602401602060405180830381865af4158015610bc8573d5f803e3d5ffd5b505050506040513d601f19601f82011682018060405250810190610bec919061464c565b92915050565b5f805f610bfe84612727565b5467ffffffffffffffff6101008204811696690100000000000000000090920416945092505050565b333014610c60576040517f82b4290000000000000000000000000000000000000000000000000000000000815260040160405180910390fd5b5f610c6d82840184614665565b90505f610c7c825f01516129e0565b90508160200151515f03610cbc576040517f27895bdc00000000000000000000000000000000000000000000000000000000815260040160405180910390fd5b5f808360200151806020019051810190610cd691906146d7565b90925090505f828015610ceb57610ceb613f93565b03610df0575f805f83806020019051810190610d079190614728565b6040517f163ace6900000000000000000000000000000000000000000000000000000000815273ffffffffffffffffffffffffffffffffffffffff7f000000000000000000000000000000000000000000000000000000000000000081166004830152808b1660248301528085166044830152831660648201526fffffffffffffffffffffffffffffffff82166084820152929550909350915073__$8f2c9aef4b12e754f755959dab335b34dd$__9063163ace699060a4015f6040518083038186803b158015610dd6575f80fd5b505af4158015610de8573d5f803e3d5ffd5b505050505050505b505050505050565b5f610e217f360894a13ba1a3210667c828492db98dca3e2076cc3735a920a3ca505d382bbc5490565b73ffffffffffffffffffffffffffffffffffffffff1603610e6e576040517f82b4290000000000000000000000000000000000000000000000000000000000815260040160405180910390fd5b7e96e2f02350077f4ff1746770dbe5db3c04b7db2c8763c8fc21bf66b35e96ab5f610e9b84840185614767565b805183549192509083907fffffffffffffffffffffffffffffffffffffffffffffffffffffffffffffff001660018381811115610eda57610eda613f93565b02179055505f7f0000000000000000000000000000000000000000000000000000000000000000604051610f0d90613f03565b908152602001604051809103905ff080158015610f2c573d5f803e3d5ffd5b507f00000000000000000000000000000000000000000000000000000000000000005f818152600286016020908152604080832080547fffffffffffffffffffffffff00000000000000000000000000000000000000001673ffffffffffffffffffffffffffffffffffffffff87169081179091558084526003890183528184209490945580516080810182528381528083018490528082018490526060810194909452600180845280890190925290912082518154949550929390929183917fffffffffffffffffffffffffffffffffffffffffffffffffffffffffffffff001690838181111561102057611020613f93565b021790555060208281015182546040808601517fffffffffffffffffffffffffffffff00000000000000000000000000000000ff90921661010067ffffffffffffffff948516027fffffffffffffffffffffffffffffff0000000000000000ffffffffffffffffff161769010000000000000000009390921692909202178355606093840151600193840180547fffffffffffffffffffffffff00000000000000000000000000000000000000001673ffffffffffffffffffffffffffffffffffffffff92831617905581516080810183525f80825281850181905281840181905291871695810195909552600281528784019092529020825181549192909183917fffffffffffffffffffffffffffffffffffffffffffffffffffffffffffffff0090911690838181111561115857611158613f93565b0217905550602082015181546040808501517fffffffffffffffffffffffffffffff00000000000000000000000000000000ff90921661010067ffffffffffffffff948516027fffffffffffffffffffffffffffffff0000000000000000ffffffffffffffffff161769010000000000000000009390921692909202178255606090920151600190910180547fffffffffffffffffffffffff00000000000000000000000000000000000000001673ffffffffffffffffffffffffffffffffffffffff909216919091179055608083015190515f919061123790613f03565b908152602001604051809103905ff080158015611256573d5f803e3d5ffd5b50608084810180515f9081526002880160209081526040808320805473ffffffffffffffffffffffffffffffffffffffff88167fffffffffffffffffffffffff00000000000000000000000000000000000000009091168117909155935184845260038b01835281842055805194850181528285528482018390528481018390526060808601949094529288015183517f70617261000000000000000000000000000000000000000000000000000000008184015260e09190911b7fffffffff00000000000000000000000000000000000000000000000000000000166024820152835160088183030181526028909101845280519082012082526001808a0190915291902082518154949550929390929183917fffffffffffffffffffffffffffffffffffffffffffffffffffffffffffffff001690838181111561139e5761139e613f93565b021790555060208201518154604084015167ffffffffffffffff9081166901000000000000000000027fffffffffffffffffffffffffffffff0000000000000000ffffffffffffffffff9190931661010002167fffffffffffffffffffffffffffffff00000000000000000000000000000000ff909116171781556060909101516001909101805473ffffffffffffffffffffffffffffffffffffffff9092167fffffffffffffffffffffffff00000000000000000000000000000000000000009092169190911790555f6114907f59ef95eb9983b1a4650e1bc666384b8507689fc8aca3edd429d7e07c0ca9d2f690565b6040850151815560208501516001820180547fffffffffffffffffffffffffffffffff00000000000000000000000000000000166fffffffffffffffffffffffffffffffff928316179055610100860151600283015560608601517f8d3b47662f045c362f825b520d7ddf7a0e5f6703a828606de6840b3652b8c22f805473ffffffffffffffffffffffffffffffffffffffff87167fffffffffffffffffffffffff000000000000000000000000000000000000000063ffffffff9094167401000000000000000000000000000000000000000002939093167fffffffffffffffff0000000000000000000000000000000000000000000000009091161791909117905560e08601517f8d3b47662f045c362f825b520d7ddf7a0e5f6703a828606de6840b3652b8c2315560a086015160c08701518216700100000000000000000000000000000000029116177f8d3b47662f045c362f825b520d7ddf7a0e5f6703a828606de6840b3652b8c2305590507f8d3b47662f045c362f825b520d7ddf7a0e5f6703a828606de6840b3652b8c22e5f7f06e511110254c925caa9863541ca318b1a9a0615f0ac1669e771c5d47be3a4bb610120969096015186547fffffffffffffffffffffffff00000000000000000000000000000000000000001673ffffffffffffffffffffffffffffffffffffffff909116179095555050505050505050565b6040517f711d82910000000000000000000000000000000000000000000000000000000081525f9073__$8f2c9aef4b12e754f755959dab335b34dd$__9063711d82919061171490899033908a908a908a907f0000000000000000000000000000000000000000000000000000000000000000908b906004016148c0565b5f60405180830381865af415801561172e573d5f803e3d5ffd5b505050506040513d5f823e601f3d9081017fffffffffffffffffffffffffffffffffffffffffffffffffffffffffffffffe0168201604052611773919081019061445f565b9050610df0816127a8565b3330146117b7576040517f82b4290000000000000000000000000000000000000000000000000000000000815260040160405180910390fd5b7f8d3b47662f045c362f825b520d7ddf7a0e5f6703a828606de6840b3652b8c22e5f6117e584840185614963565b805160208201516fffffffffffffffffffffffffffffffff9081167001000000000000000000000000000000000291161760028401556040808201516003850155519091507f4793c0cb5bef4b1fdbbfbcf17e06991844eb881088b012442af17a12ff38d5cd905f90a150505050565b5f61187e7f360894a13ba1a3210667c828492db98dca3e2076cc3735a920a3ca505d382bbc5490565b905090565b5f610bec826129e0565b5f61187e73__$8f2c9aef4b12e754f755959dab335b34dd$__63b02b33206040518163ffffffff1660e01b81526004016040805180830381865af41580156118d7573d5f803e3d5ffd5b505050506040513d601f19601f820116820180604052508101906118fb9190614996565b612c65565b333014611939576040517f82b4290000000000000000000000000000000000000000000000000000000000815260040160405180910390fd5b7e96e2f02350077f4ff1746770dbe5db3c04b7db2c8763c8fc21bf66b35e96ab5f611966848401856149b0565b805183549192509083907fffffffffffffffffffffffffffffffffffffffffffffffffffffffffffffff0016600183818111156119a5576119a5613f93565b021790555080516040517f4016a1377b8961c4aa6f3a2d3de830a685ddbfe0f228ffc0208eb96304c4cf1a916119da91613fc0565b60405180910390a150505050565b6040517fbeb9a0bb00000000000000000000000000000000000000000000000000000000815273ffffffffffffffffffffffffffffffffffffffff8416600482015263ffffffff831660248201526fffffffffffffffffffffffffffffffff80831660448301527f00000000000000000000000000000000000000000000000000000000000000001660648201525f90611ab59073__$8f2c9aef4b12e754f755959dab335b34dd$__9063beb9a0bb906084016040805180830381865af41580156118d7573d5f803e3d5ffd5b90505b9392505050565b333014611af8576040517f82b4290000000000000000000000000000000000000000000000000000000000815260040160405180910390fd5b5f611b05828401846149da565b90505f611b14825f01516129e0565b6020830151604080850151606086015191517f163ace6900000000000000000000000000000000000000000000000000000000815273ffffffffffffffffffffffffffffffffffffffff7f00000000000000000000000000000000000000000000000000000000000000008116600483015280861660248301529384166044820152921660648301526fffffffffffffffffffffffffffffffff16608482015290915073__$8f2c9aef4b12e754f755959dab335b34dd$__9063163ace699060a4015f6040518083038186803b158015611bec575f80fd5b505af4158015611bfe573d5f803e3d5ffd5b5050505050505050565b333014611c41576040517f82b4290000000000000000000000000000000000000000000000000000000000815260040160405180910390fd5b5f611c4e82840184614380565b90505f611c5d825f01516129e0565b9050611c728183602001518460400151612cff565b816020015173ffffffffffffffffffffffffffffffffffffffff16825f01517ff953871855f78d5ccdd6268f2d9d69fc67f26542a35d2bba1c615521aed570548460400151604051611cc691815260200190565b60405180910390a350505050565b333014611d0d576040517f82b4290000000000000000000000000000000000000000000000000000000000815260040160405180910390fd5b5f611d1a82840184614a46565b80516020820151604080840151606085015191517f7acb4a7400000000000000000000000000000000000000000000000000000000815294955073__$8f2c9aef4b12e754f755959dab335b34dd$__94637acb4a749461072d949093909291600401614b38565b333014611dba576040517f82b4290000000000000000000000000000000000000000000000000000000000815260040160405180910390fd5b5f611dc782840184614b77565b90505f611dd6825f0151612727565b82519091506001148015611dff57505f82602001516001811115611dfc57611dfc613f93565b14155b15611e36576040517fb24a3b7700000000000000000000000000000000000000000000000000000000815260040160405180910390fd5b6020820151815482907fffffffffffffffffffffffffffffffffffffffffffffffffffffffffffffff001660018381811115611e7457611e74613f93565b021790555081516040517f66e174b5e03ba247add8660a34e70bdd484239fe794c2567772e8e93a5c1696b905f90a250505050565b333014611ee2576040517f82b4290000000000000000000000000000000000000000000000000000000000815260040160405180910390fd5b7e96e2f02350077f4ff1746770dbe5db3c04b7db2c8763c8fc21bf66b35e96ab5f611f0f84840185614bab565b80515f90815260028401602052604090205490915073ffffffffffffffffffffffffffffffffffffffff1615611f71576040517f4d7456e400000000000000000000000000000000000000000000000000000000815260040160405180910390fd5b5f815f0151604051611f8290613f03565b908152602001604051809103905ff080158015611fa1573d5f803e3d5ffd5b5082515f90815260028501602090815260409182902080547fffffffffffffffffffffffff00000000000000000000000000000000000000001673ffffffffffffffffffffffffffffffffffffffff851690811790915585518351908152918201529192507f7c96960a1ebd8cc753b10836ea25bd7c9c4f8cd43590db1e8b3648cb0ec4cc89910160405180910390a15050505050565b5f5a90505f6120478635612727565b805490915061206690610100900467ffffffffffffffff166001614bfa565b67ffffffffffffffff166120806040880160208901614c39565b67ffffffffffffffff16146120c1576040517f756688fe00000000000000000000000000000000000000000000000000000000815260040160405180910390fd5b8054610100900467ffffffffffffffff168160016120de83614c52565b91906101000a81548167ffffffffffffffff021916908367ffffffffffffffff160217905550505f866040516020016121179190614c86565b6040516020818303038152906040528051906020012090505f61216d8787808060200260200160405190810160405280939291908181526020018383602002808284375f92019190915250869250612db3915050565b90506121798186612df5565b6121af576040517f09bde33900000000000000000000000000000000000000000000000000000000815260040160405180910390fd5b5f6121c060a08a0160808b01614c39565b67ffffffffffffffff1690505f54816121d99190614d3e565b5a1015612212576040517fdd629f8600000000000000000000000000000000000000000000000000000000815260040160405180910390fd5b60015f61222560608c0160408d01614d51565b600b81111561223657612236613f93565b036122a557306335ede9698361224f60608e018e614d6a565b6040518463ffffffff1660e01b815260040161226c929190614dcb565b5f604051808303815f88803b158015612283575f80fd5b5087f193505050508015612295575060015b6122a057505f612586565b612586565b60026122b760608c0160408d01614d51565b600b8111156122c8576122c8613f93565b036122e1573063c3b8ec8e8361224f60608e018e614d6a565b60036122f360608c0160408d01614d51565b600b81111561230457612304613f93565b0361231d57306317abcf608361224f60608e018e614d6a565b600461232f60608c0160408d01614d51565b600b81111561234057612340613f93565b03612359573063afce33c48361224f60608e018e614d6a565b600561236b60608c0160408d01614d51565b600b81111561237c5761237c613f93565b036123955730638257f3d58361224f60608e018e614d6a565b60066123a760608c0160408d01614d51565b600b8111156123b8576123b8613f93565b036123d15730639a870c8b8361224f60608e018e614d6a565b60016123e360608c0160408d01614d51565b600b8111156123f4576123f4613f93565b0361240d573063253946458361224f60608e018e614d6a565b600761241f60608c0160408d01614d51565b600b81111561243057612430613f93565b036124495730635b2e9c4c8361224f60608e018e614d6a565b600861245b60608c0160408d01614d51565b600b81111561246c5761246c613f93565b036124855730630c86ea468361224f60608e018e614d6a565b600961249760608c0160408d01614d51565b600b8111156124a8576124a8613f93565b036124c157306393dbdf1d8361224f60608e018e614d6a565b600a6124d360608c0160408d01614d51565b600b8111156124e4576124e4613f93565b036124fd573063ae8a4d988361224f60608e018e614d6a565b600b61250f60608c0160408d01614d51565b600b81111561252057612520613f93565b03612586573063017b73118361253960608e018e614d6a565b6040518463ffffffff1660e01b8152600401612556929190614dcb565b5f604051808303815f88803b15801561256d575f80fd5b5087f19350505050801561257f575060015b61258657505f5b5f5a6125929088614dde565b61259a612ecc565b6125a49190614d3e565b90505f6125b53a8d60a00135612ee4565b6125bf9083614df1565b90505f6125f46125d360c08f013584614d3e565b60018a015473ffffffffffffffffffffffffffffffffffffffff1631612ee4565b90506125fe612ef9565b81111561262b57600188015461262b9073ffffffffffffffffffffffffffffffffffffffff163383612cff565b8c60e001358d5f01357f617fdb0cb78f01551a192a3673208ec5eb09f20a90acf673c63a0dcb11745a7a8f60200160208101906126689190614c39565b6040805167ffffffffffffffff909216825288151560208301520160405180910390a350505050505050505050505050565b6040517ffe61cc49000000000000000000000000000000000000000000000000000000008152600481018290525f9073__$8f2c9aef4b12e754f755959dab335b34dd$__9063fe61cc4990602401602060405180830381865af4158015612703573d5f803e3d5ffd5b505050506040513d601f19601f82011682018060405250810190610bec9190614e08565b5f8181527e96e2f02350077f4ff1746770dbe5db3c04b7db2c8763c8fc21bf66b35e96ac60205260409020600181015473ffffffffffffffffffffffffffffffffffffffff166127a3576040517f6ddd9da900000000000000000000000000000000000000000000000000000000815260040160405180910390fd5b919050565b8051604080517f706172610000000000000000000000000000000000000000000000000000000060208083019190915260e09390931b7fffffffff0000000000000000000000000000000000000000000000000000000016602482015281516008818303018152602890910190915280519101205f61282682612727565b905061283181612f06565b5f61283f8460200151612c65565b90508034101561287b576040517f1f33573800000000000000000000000000000000000000000000000000000000815260040160405180910390fd5b815461289f906901000000000000000000900467ffffffffffffffff166001614bfa565b825467ffffffffffffffff919091166901000000000000000000027fffffffffffffffffffffffffffffff0000000000000000ffffffffffffffffff90911617825560018201546129069073ffffffffffffffffffffffffffffffffffffffff1682612f9b565b803411156129225761292261291b8234614dde565b3390612f9b565b81546040805160208101869052690100000000000000000090920460c01b7fffffffffffffffff00000000000000000000000000000000000000000000000016908201525f9060480160405160208183030381529060405280519060200120905080847f7153f9357c8ea496bba60bf82e67143e27b64462b49041f8e689e1b05728f84f855f0160099054906101000a900467ffffffffffffffff1688604001516040516129d1929190614e23565b60405180910390a35050505050565b5f8181527e96e2f02350077f4ff1746770dbe5db3c04b7db2c8763c8fc21bf66b35e96ad602052604090205473ffffffffffffffffffffffffffffffffffffffff16806127a3576040517fd3227c9b00000000000000000000000000000000000000000000000000000000815260040160405180910390fd5b612a788373ffffffffffffffffffffffffffffffffffffffff16612fdd565b612aae576040517f6eefed2000000000000000000000000000000000000000000000000000000000815260040160405180910390fd5b818373ffffffffffffffffffffffffffffffffffffffff163f14612afe576040517f8f84fb2400000000000000000000000000000000000000000000000000000000815260040160405180910390fd5b612b26837f360894a13ba1a3210667c828492db98dca3e2076cc3735a920a3ca505d382bbc55565b5f808473ffffffffffffffffffffffffffffffffffffffff1683604051602401612b509190614e45565b604080517fffffffffffffffffffffffffffffffffffffffffffffffffffffffffffffffe08184030181529181526020820180517bffffffffffffffffffffffffffffffffffffffffffffffffffffffff167f439fab910000000000000000000000000000000000000000000000000000000017905251612bd19190614e57565b5f60405180830381855af49150503d805f8114612c09576040519150601f19603f3d011682016040523d82523d5f602084013e612c0e565b606091505b5091509150612c1d828261303d565b5060405173ffffffffffffffffffffffffffffffffffffffff8616907fbc7cd75a20ee27fd9adebab32041f755214dbc6bffa90cc0225b39da2e5c2d3b905f90a25050505050565b80517f59ef95eb9983b1a4650e1bc666384b8507689fc8aca3edd429d7e07c0ca9d2f7545f917f59ef95eb9983b1a4650e1bc666384b8507689fc8aca3edd429d7e07c0ca9d2f6918391612cd491612ccf91906fffffffffffffffffffffffffffffffff16614d3e565b61305c565b9050612ce8825f01548360020154836130de565b8460200151612cf79190614d3e565b949350505050565b60405173ffffffffffffffffffffffffffffffffffffffff83166024820152604481018290525f90606401604080517fffffffffffffffffffffffffffffffffffffffffffffffffffffffffffffffe08184030181529190526020810180517bffffffffffffffffffffffffffffffffffffffffffffffffffffffff167f7d2e90c2000000000000000000000000000000000000000000000000000000001790529050612dac848261316c565b5050505050565b5f81815b8451811015612ded57612de382868381518110612dd657612dd6614e6d565b6020026020010151613242565b9150600101612db7565b509392505050565b6040517fbc9535d40000000000000000000000000000000000000000000000000000000081525f9073__$814b009df1eea0617c5279b3ba0333b56a$__9063bc9535d490612e8d907f0000000000000000000000000000000000000000000000000000000000000000907f00000000000000000000000000000000000000000000000000000000000000009088908890600401615021565b602060405180830381865af4158015612ea8573d5f803e3d5ffd5b505050506040513d601f19601f82011682018060405250810190611ab8919061464c565b5f612ed8366010614df1565b61187e90618b72614d3e565b5f818310612ef25781611ab8565b5090919050565b5f61187e3a615208614df1565b7e96e2f02350077f4ff1746770dbe5db3c04b7db2c8763c8fc21bf66b35e96ab80545f9060ff166001811115612f3e57612f3e613f93565b141580612f6057505f825460ff166001811115612f5d57612f5d613f93565b14155b15612f97576040517f75884cda00000000000000000000000000000000000000000000000000000000815260040160405180910390fd5b5050565b5f805f805f85875af1905080610b45576040517ff4b3b1bc00000000000000000000000000000000000000000000000000000000815260040160405180910390fd5b5f73ffffffffffffffffffffffffffffffffffffffff82163f15801590610bec57505073ffffffffffffffffffffffffffffffffffffffff163f7fc5d2460186f7233c927e7db2dcc703c0e500b653ca82273b7bfad8045d85a470141590565b6060821561304c575080610bec565b8151156101ba5781518083602001fd5b5f61308f670de0b6b3a76400007fffffffffffffffffffffffffffffffffffffffffffffffffffffffffffffffff615266565b8211156130d0576040517f1cd951a7000000000000000000000000000000000000000000000000000000008152600481018390526024015b60405180910390fd5b50670de0b6b3a76400000290565b5f806130f1670de0b6b3a764000061305c565b90505f6131336131237f000000000000000000000000000000000000000000000000000000000000000060ff1661305c565b61312d600a61305c565b9061326e565b90505f6131568361314a846131508b838c8c61337e565b9061337e565b9061338c565b9050613161816133a3565b979650505050505050565b60605f808473ffffffffffffffffffffffffffffffffffffffff16639bb66b287f0000000000000000000000000000000000000000000000000000000000000000866040518363ffffffff1660e01b81526004016131cb92919061529e565b5f604051808303815f875af11580156131e6573d5f803e3d5ffd5b505050506040513d5f823e601f3d9081017fffffffffffffffffffffffffffffffffffffffffffffffffffffffffffffffe016820160405261322b91908101906152cc565b91509150613239828261303d565b95945050505050565b5f81831061325c575f828152602084905260409020611ab8565b5f838152602083905260409020611ab8565b5f8282818303613297578015613284575f61328e565b670de0b6b3a76400005b92505050610bec565b670de0b6b3a764000082036132b857670de0b6b3a764000092505050610bec565b805f036132d157670de0b6b3a764000092505050610bec565b670de0b6b3a764000081036132ea578492505050610bec565b670de0b6b3a764000082111561331b5761331461330f613309876133b6565b8661337e565b613517565b9250613376565b5f61333b613338846ec097ce7bc90715b34b9f1000000000615266565b90565b90505f61335361330f61334d846133b6565b8861337e565b9050613371613338826ec097ce7bc90715b34b9f1000000000615266565b945050505b505092915050565b5f611ab86133388484613584565b5f611ab861333884670de0b6b3a764000085613688565b5f610bec670de0b6b3a764000083615266565b5f81670de0b6b3a76400008110156133fd576040517f36d32ef0000000000000000000000000000000000000000000000000000000008152600481018490526024016130c7565b5f613488670de0b6b3a7640000830460016fffffffffffffffffffffffffffffffff821160071b91821c67ffffffffffffffff811160061b90811c63ffffffff811160051b90811c61ffff811160041b90811c60ff8111600390811b91821c600f811160021b90811c918211871b91821c969096119490961792909217171791909117919091171790565b9050670de0b6b3a7640000810282821c7ffffffffffffffffffffffffffffffffffffffffffffffffff21f494c589c000081016134c85750949350505050565b671bc16d674ec800006706f05b59d3b200005b801561350b57670de0b6b3a7640000838002049250818310613503579283019260019290921c915b60011c6134db565b50919695505050505050565b5f81680a688906bd8affffff81111561355f576040517fb3b6ba1f000000000000000000000000000000000000000000000000000000008152600481018490526024016130c7565b5f613576670de0b6b3a7640000604084901b615266565b9050612cf76133388261378f565b5f80807fffffffffffffffffffffffffffffffffffffffffffffffffffffffffffffffff848609848602925082811083820303915050805f036135d45750670de0b6b3a764000090049050610bec565b670de0b6b3a7640000811061361f576040517f5173648d00000000000000000000000000000000000000000000000000000000815260048101869052602481018590526044016130c7565b5f670de0b6b3a7640000858709620400008185030493109091037d40000000000000000000000000000000000000000000000000000000000002919091177faccb18165bd6fe31ae1cf318dc5b51eee0e1ba569b88cd74c1773b91fac106690291505092915050565b5f80807fffffffffffffffffffffffffffffffffffffffffffffffffffffffffffffffff858709858702925082811083820303915050805f036136de578382816136d4576136d4615239565b0492505050611ab8565b838110613728576040517f63a057780000000000000000000000000000000000000000000000000000000081526004810187905260248101869052604481018590526064016130c7565b5f8486880960026001871981018816978890046003810283188082028403028082028403028082028403028082028403028082028403029081029092039091025f889003889004909101858311909403939093029303949094049190911702949350505050565b7780000000000000000000000000000000000000000000000067ff000000000000008216156138b0576780000000000000008216156137d75768016a09e667f3bcc9090260401c5b6740000000000000008216156137f6576801306fe0a31b7152df0260401c5b672000000000000000821615613815576801172b83c7d517adce0260401c5b6710000000000000008216156138345768010b5586cf9890f62a0260401c5b670800000000000000821615613853576801059b0d31585743ae0260401c5b67040000000000000082161561387257680102c9a3e778060ee70260401c5b6702000000000000008216156138915768010163da9fb33356d80260401c5b6701000000000000008216156138b057680100b1afa5abcbed610260401c5b66ff0000000000008216156139af5766800000000000008216156138dd5768010058c86da1c09ea20260401c5b66400000000000008216156138fb576801002c605e2e8cec500260401c5b662000000000000082161561391957680100162f3904051fa10260401c5b6610000000000000821615613937576801000b175effdc76ba0260401c5b660800000000000082161561395557680100058ba01fb9f96d0260401c5b66040000000000008216156139735768010002c5cc37da94920260401c5b6602000000000000821615613991576801000162e525ee05470260401c5b66010000000000008216156139af5768010000b17255775c040260401c5b65ff0000000000821615613aa557658000000000008216156139da576801000058b91b5bc9ae0260401c5b654000000000008216156139f757680100002c5c89d5ec6d0260401c5b65200000000000821615613a145768010000162e43f4f8310260401c5b65100000000000821615613a3157680100000b1721bcfc9a0260401c5b65080000000000821615613a4e5768010000058b90cf1e6e0260401c5b65040000000000821615613a6b576801000002c5c863b73f0260401c5b65020000000000821615613a8857680100000162e430e5a20260401c5b65010000000000821615613aa5576801000000b1721835510260401c5b64ff00000000821615613b9257648000000000821615613ace57680100000058b90c0b490260401c5b644000000000821615613aea5768010000002c5c8601cc0260401c5b642000000000821615613b06576801000000162e42fff00260401c5b641000000000821615613b225768010000000b17217fbb0260401c5b640800000000821615613b3e576801000000058b90bfce0260401c5b640400000000821615613b5a57680100000002c5c85fe30260401c5b640200000000821615613b765768010000000162e42ff10260401c5b640100000000821615613b9257680100000000b17217f80260401c5b63ff000000821615613c76576380000000821615613bb95768010000000058b90bfc0260401c5b6340000000821615613bd4576801000000002c5c85fe0260401c5b6320000000821615613bef57680100000000162e42ff0260401c5b6310000000821615613c0a576801000000000b17217f0260401c5b6308000000821615613c2557680100000000058b90c00260401c5b6304000000821615613c405768010000000002c5c8600260401c5b6302000000821615613c5b576801000000000162e4300260401c5b6301000000821615613c765768010000000000b172180260401c5b62ff0000821615613d515762800000821615613c9b576801000000000058b90c0260401c5b62400000821615613cb557680100000000002c5c860260401c5b62200000821615613ccf5768010000000000162e430260401c5b62100000821615613ce957680100000000000b17210260401c5b62080000821615613d035768010000000000058b910260401c5b62040000821615613d1d576801000000000002c5c80260401c5b62020000821615613d3757680100000000000162e40260401c5b62010000821615613d51576801000000000000b1720260401c5b61ff00821615613e2357618000821615613d7457680100000000000058b90260401c5b614000821615613d8d5768010000000000002c5d0260401c5b612000821615613da6576801000000000000162e0260401c5b611000821615613dbf5768010000000000000b170260401c5b610800821615613dd8576801000000000000058c0260401c5b610400821615613df157680100000000000002c60260401c5b610200821615613e0a57680100000000000001630260401c5b610100821615613e2357680100000000000000b10260401c5b60ff821615613eec576080821615613e4457680100000000000000590260401c5b6040821615613e5c576801000000000000002c0260401c5b6020821615613e7457680100000000000000160260401c5b6010821615613e8c576801000000000000000b0260401c5b6008821615613ea457680100000000000000060260401c5b6004821615613ebc57680100000000000000030260401c5b6002821615613ed457680100000000000000010260401c5b6001821615613eec57680100000000000000010260401c5b670de0b6b3a76400000260409190911c60bf031c90565b6103988061530283390190565b5f8060208385031215613f21575f80fd5b823567ffffffffffffffff80821115613f38575f80fd5b818501915085601f830112613f4b575f80fd5b813581811115613f59575f80fd5b866020828501011115613f6a575f80fd5b60209290920196919550909350505050565b5f60208284031215613f8c575f80fd5b5035919050565b7f4e487b71000000000000000000000000000000000000000000000000000000005f52602160045260245ffd5b6020810160028310613fd457613fd4613f93565b91905290565b73ffffffffffffffffffffffffffffffffffffffff8116811461083d575f80fd5b80356127a381613fda565b5f60208284031215614016575f80fd5b8135611ab881613fda565b63ffffffff8116811461083d575f80fd5b80356127a381614021565b6fffffffffffffffffffffffffffffffff8116811461083d575f80fd5b80356127a38161403d565b5f805f805f60a08688031215614079575f80fd5b853561408481613fda565b9450602086013561409481614021565b9350604086013567ffffffffffffffff8111156140af575f80fd5b8601604081890312156140c0575f80fd5b925060608601356140d08161403d565b915060808601356140e08161403d565b809150509295509295909350565b5f805f60608486031215614100575f80fd5b833561410b81613fda565b9250602084013561411b81614021565b9150604084013561412b8161403d565b809150509250925092565b5f6101408284031215614147575f80fd5b50919050565b5f805f8060608587031215614160575f80fd5b843567ffffffffffffffff80821115614177575f80fd5b90860190610100828903121561418b575f80fd5b909450602086013590808211156141a0575f80fd5b818701915087601f8301126141b3575f80fd5b8135818111156141c1575f80fd5b8860208260051b85010111156141d5575f80fd5b6020830195508094505060408701359150808211156141f2575f80fd5b506141ff87828801614136565b91505092959194509250565b7f4e487b71000000000000000000000000000000000000000000000000000000005f52604160045260245ffd5b6040516060810167ffffffffffffffff8111828210171561425b5761425b61420b565b60405290565b6040805190810167ffffffffffffffff8111828210171561425b5761425b61420b565b604051610140810167ffffffffffffffff8111828210171561425b5761425b61420b565b6040516020810167ffffffffffffffff8111828210171561425b5761425b61420b565b6040516080810167ffffffffffffffff8111828210171561425b5761425b61420b565b604051601f82017fffffffffffffffffffffffffffffffffffffffffffffffffffffffffffffffe016810167ffffffffffffffff811182821017156143355761433561420b565b604052919050565b5f6060828403121561434d575f80fd5b614355614238565b905081358152602082013561436981613fda565b806020830152506040820135604082015292915050565b5f60608284031215614390575f80fd5b611ab8838361433d565b5f604082840312156143aa575f80fd5b6143b2614261565b9050815181526020820151602082015292915050565b5f67ffffffffffffffff8211156143e1576143e161420b565b50601f017fffffffffffffffffffffffffffffffffffffffffffffffffffffffffffffffe01660200190565b5f82601f83011261441c575f80fd5b815161442f61442a826143c8565b6142ee565b818152846020838601011115614443575f80fd5b8160208501602083015e5f918101602001919091529392505050565b5f6020828403121561446f575f80fd5b815167ffffffffffffffff80821115614486575f80fd5b9083019060808286031215614499575f80fd5b6144a1614238565b82516144ac81614021565b81526144bb866020850161439a565b60208201526060830151828111156144d1575f80fd5b6144dd8782860161440d565b60408301525095945050505050565b5f606082840312156144fc575f80fd5b614504614238565b8235815260208301356145168161403d565b60208201526040928301359281019290925250919050565b8035600281106127a3575f80fd5b5f6060828403121561454c575f80fd5b614554614238565b823581526020830135602082015261456e6040840161452e565b60408201529392505050565b5f82601f830112614589575f80fd5b813561459761442a826143c8565b8181528460208386010111156145ab575f80fd5b816020850160208301375f918101602001919091529392505050565b5f602082840312156145d7575f80fd5b813567ffffffffffffffff808211156145ee575f80fd5b9083019060608286031215614601575f80fd5b614609614238565b823561461481613fda565b815260208381013590820152604083013582811115614631575f80fd5b6144dd8782860161457a565b805180151581146127a3575f80fd5b5f6020828403121561465c575f80fd5b611ab88261463d565b5f60208284031215614675575f80fd5b813567ffffffffffffffff8082111561468c575f80fd5b908301906040828603121561469f575f80fd5b6146a7614261565b823581526020830135828111156146bc575f80fd5b6146c88782860161457a565b60208301525095945050505050565b5f80604083850312156146e8575f80fd5b8251600181106146f6575f80fd5b602084015190925067ffffffffffffffff811115614712575f80fd5b61471e8582860161440d565b9150509250929050565b5f805f6060848603121561473a575f80fd5b835161474581613fda565b602085015190935061475681613fda565b604085015190925061412b8161403d565b5f6101408284031215614778575f80fd5b614780614284565b6147898361452e565b81526147976020840161405a565b6020820152604083013560408201526147b260608401614032565b6060820152608083013560808201526147cd60a0840161405a565b60a08201526147de60c0840161405a565b60c082015260e083013560e0820152610100808401358183015250610120614807818501613ffb565b908201529392505050565b5f8083357fffffffffffffffffffffffffffffffffffffffffffffffffffffffffffffffe1843603018112614845575f80fd5b830160208101925035905067ffffffffffffffff811115614864575f80fd5b803603821315614872575f80fd5b9250929050565b81835281816020850137505f602082840101525f60207fffffffffffffffffffffffffffffffffffffffffffffffffffffffffffffffe0601f840116840101905092915050565b73ffffffffffffffffffffffffffffffffffffffff88811682528716602082015263ffffffff8616604082015260e060608201525f853560038110614903575f80fd5b60e08301526149156020870187614812565b604061010085015261492c61012085018284614879565b6fffffffffffffffffffffffffffffffff978816608086015295871660a0850152505050921660c090920191909152949350505050565b5f60608284031215614973575f80fd5b61497b614238565b82356149868161403d565b815260208301356145168161403d565b5f604082840312156149a6575f80fd5b611ab8838361439a565b5f602082840312156149c0575f80fd5b6149c86142a8565b6149d18361452e565b81529392505050565b5f608082840312156149ea575f80fd5b6149f26142cb565b823581526020830135614a0481613fda565b60208201526040830135614a1781613fda565b60408201526060830135614a2a8161403d565b60608201529392505050565b803560ff811681146127a3575f80fd5b5f60208284031215614a56575f80fd5b813567ffffffffffffffff80821115614a6d575f80fd5b9083019060808286031215614a80575f80fd5b614a886142cb565b82358152602083013582811115614a9d575f80fd5b614aa98782860161457a565b602083015250604083013582811115614ac0575f80fd5b614acc8782860161457a565b604083015250614ade60608401614a36565b606082015295945050505050565b5f81518084528060208401602086015e5f6020828601015260207fffffffffffffffffffffffffffffffffffffffffffffffffffffffffffffffe0601f83011685010191505092915050565b848152608060208201525f614b506080830186614aec565b8281036040840152614b628186614aec565b91505060ff8316606083015295945050505050565b5f60408284031215614b87575f80fd5b614b8f614261565b82358152614b9f6020840161452e565b60208201529392505050565b5f60208284031215614bbb575f80fd5b614bc36142a8565b9135825250919050565b7f4e487b71000000000000000000000000000000000000000000000000000000005f52601160045260245ffd5b67ffffffffffffffff818116838216019080821115614c1b57614c1b614bcd565b5092915050565b803567ffffffffffffffff811681146127a3575f80fd5b5f60208284031215614c49575f80fd5b611ab882614c22565b5f67ffffffffffffffff808316818103614c6e57614c6e614bcd565b6001019392505050565b8035600c81106127a3575f80fd5b602081528135602082015267ffffffffffffffff614ca660208401614c22565b1660408201525f614cb960408401614c78565b600c8110614cc957614cc9613f93565b80606084015250614cdd6060840184614812565b610100806080860152614cf561012086018385614879565b9250614d0360808701614c22565b67ffffffffffffffff811660a0870152915060a086013560c086015260c086013560e086015260e08601358186015250508091505092915050565b80820180821115610bec57610bec614bcd565b5f60208284031215614d61575f80fd5b611ab882614c78565b5f8083357fffffffffffffffffffffffffffffffffffffffffffffffffffffffffffffffe1843603018112614d9d575f80fd5b83018035915067ffffffffffffffff821115614db7575f80fd5b602001915036819003821315614872575f80fd5b602081525f611ab5602083018486614879565b81810381811115610bec57610bec614bcd565b8082028115828204841417610bec57610bec614bcd565b5f60208284031215614e18575f80fd5b8151611ab881613fda565b67ffffffffffffffff83168152604060208201525f611ab56040830184614aec565b602081525f611ab86020830184614aec565b5f82518060208501845e5f920191825250919050565b7f4e487b71000000000000000000000000000000000000000000000000000000005f52603260045260245ffd5b5f8083357fffffffffffffffffffffffffffffffffffffffffffffffffffffffffffffffe1843603018112614ecd575f80fd5b830160208101925035905067ffffffffffffffff811115614eec575f80fd5b8060051b3603821315614872575f80fd5b5f82357fffffffffffffffffffffffffffffffffffffffffffffffffffffffffffffffa1833603018112614f2f575f80fd5b90910192915050565b8183525f7f07ffffffffffffffffffffffffffffffffffffffffffffffffffffffffffffff831115614f68575f80fd5b8260051b80836020870137939093016020019392505050565b80358252602081013560208301525f614f9d6040830183614e9a565b60606040860152613239606086018284614f38565b60ff614fbd82614a36565b1682526020810135614fce81614021565b63ffffffff80821660208501526040830135604085015267ffffffffffffffff614ffa60608501614c22565b1660608501526080830135915061501082614021565b16608083015260a090810135910152565b73ffffffffffffffffffffffffffffffffffffffff851681525f60207fffffffff0000000000000000000000000000000000000000000000000000000080871682850152604086604086015260606080606087015286357fffffffffffffffffffffffffffffffffffffffffffffffffffffffffffffff618836030181126150a7575f80fd5b87810190506101406080880152610260870181356101c0890152858201356101e0890152604082013561020089015260608201356102208901526150ee6080830183614e9a565b60a06102408b015291829052909150610280600583901b8901810191908901815f5b85811015615198577ffffffffffffffffffffffffffffffffffffffffffffffffffffffffffffffd808c86030183526151498285614efd565b803586528a8101358a811680821461515f575f80fd5b878d015250615170818a0182614812565b9150888a8801526151848988018383614879565b965050509189019190890190600101615110565b505050506151a8868a018a614efd565b95507fffffffffffffffffffffffffffffffffffffffffffffffffffffffffffffff809450848882030160a08901526151e18187614f81565b9550505050506151f760c0850160408701614fb2565b615205610100860186614e9a565b828685030161018087015261521b848284614f38565b93505050506101208401356101a08401528091505095945050505050565b7f4e487b71000000000000000000000000000000000000000000000000000000005f52601260045260245ffd5b5f82615299577f4e487b71000000000000000000000000000000000000000000000000000000005f52601260045260245ffd5b500490565b73ffffffffffffffffffffffffffffffffffffffff83168152604060208201525f611ab56040830184614aec565b5f80604083850312156152dd575f80fd5b6152e68361463d565b9150602083015167ffffffffffffffff811115614712575f80fdfe60c0604052348015600e575f80fd5b50604051610398380380610398833981016040819052602b916036565b6080523360a052604c565b5f602082840312156045575f80fd5b5051919050565b60805160a0516103266100725f395f81816052015261012701525f60dc01526103265ff3fe608060405260043610610036575f3560e01c8063338c5371146100415780639bb66b281461009e578063e905182a146100cb575f80fd5b3661003d57005b5f80fd5b34801561004c575f80fd5b506100747f000000000000000000000000000000000000000000000000000000000000000081565b60405173ffffffffffffffffffffffffffffffffffffffff90911681526020015b60405180910390f35b3480156100a9575f80fd5b506100bd6100b83660046101ef565b61010c565b604051610095929190610285565b3480156100d6575f80fd5b506100fe7f000000000000000000000000000000000000000000000000000000000000000081565b604051908152602001610095565b5f60603373ffffffffffffffffffffffffffffffffffffffff7f0000000000000000000000000000000000000000000000000000000000000000161461017e576040517f82b4290000000000000000000000000000000000000000000000000000000000815260040160405180910390fd5b8473ffffffffffffffffffffffffffffffffffffffff1684846040516101a59291906102e1565b5f60405180830381855af49150503d805f81146101dd576040519150601f19603f3d011682016040523d82523d5f602084013e6101e2565b606091505b5091509150935093915050565b5f805f60408486031215610201575f80fd5b833573ffffffffffffffffffffffffffffffffffffffff81168114610224575f80fd5b9250602084013567ffffffffffffffff80821115610240575f80fd5b818601915086601f830112610253575f80fd5b813581811115610261575f80fd5b876020828501011115610272575f80fd5b6020830194508093505050509250925092565b8215158152604060208201525f82518060408401528060208501606085015e5f6060828501015260607fffffffffffffffffffffffffffffffffffffffffffffffffffffffffffffffe0601f8301168401019150509392505050565b818382375f910190815291905056fea2646970667358221220470190c8477390f020bf90281d2cf635aa5d53a95d0084e712ffb6c48876e1e464736f6c63430008190033a264697066735822122096076830cdbed3089189b6e42a61f5cec3eb8569f523e5c3f541e78b4bdb733d64736f6c63430008190033",
    "linkReferences": {
      "src/Assets.sol": {
        "Assets": [
          {
            "start": 2306,
            "length": 20
          },
          {
            "start": 2479,
            "length": 20
          },
          {
            "start": 3459,
            "length": 20
          },
          {
            "start": 3990,
            "length": 20
          },
          {
            "start": 6323,
            "length": 20
          },
          {
            "start": 6790,
            "length": 20
          },
          {
            "start": 7281,
            "length": 20
          },
          {
            "start": 7596,
            "length": 20
          },
          {
            "start": 8009,
            "length": 20
          },
          {
            "start": 10430,
            "length": 20
          }
        ]
      },
      "src/Verification.sol": {
        "Verification": [
          {
            "start": 12306,
            "length": 20
          }
        ]
      }
    }
  },
  "methodIdentifiers": {
    "AGENT_EXECUTOR()": "423e69b6",
    "BEEFY_CLIENT()": "90ffc4f9",
    "agentExecute(bytes)": "35ede969",
    "agentOf(bytes32)": "5e6dae26",
    "channelNoncesOf(bytes32)": "2a6c3229",
    "channelOperatingModeOf(bytes32)": "0705f465",
    "createAgent(bytes)": "c3b8ec8e",
    "createChannel(bytes)": "17abcf60",
    "implementation()": "5c60da1b",
    "initialize(bytes)": "439fab91",
    "isTokenRegistered(address)": "26aa101f",
    "mintForeignToken(bytes)": "017b7311",
    "operatingMode()": "38004f69",
    "pricingParameters()": "0b617646",
    "queryForeignTokenID(address)": "be8d42c0",
    "quoteRegisterTokenFee()": "805ce31d",
    "quoteSendTokenFee(address,uint32,uint128)": "928bc49d",
    "registerForeignToken(bytes)": "ae8a4d98",
    "registerToken(address)": "09824a80",
    "sendToken(address,uint32,(uint8,bytes),uint128,uint128)": "52054834",
    "setOperatingMode(bytes)": "8257f3d5",
    "setPricingParameters(bytes)": "0c86ea46",
    "setTokenTransferFees(bytes)": "5b2e9c4c",
    "submitV1((bytes32,uint64,uint8,bytes,uint64,uint256,uint256,bytes32),bytes32[],((bytes32,uint256,bytes32,bytes32,(uint256,bytes4,bytes)[]),(uint256,uint256,bytes32[]),(uint8,uint32,bytes32,uint64,uint32,bytes32),bytes32[],uint256))": "df4ed829",
    "tokenAddressOf(bytes32)": "fe61cc49",
    "transferNativeFromAgent(bytes)": "9a870c8b",
    "transferNativeToken(bytes)": "93dbdf1d",
    "updateChannel(bytes)": "afce33c4",
    "upgrade(bytes)": "25394645"
  },
  "id": 59
}